:020000040000FA
:060000000A128A110C280F
:10000800FE00030EF0000A08F1000A128A11CB2A3A
:100018000A128A110F28FA01FB0183120313BA018D
:10002800BB01BC01BD01BE01BF0183010A128A11D7
:10003800B029831203132708AB002808AC0029084D
:10004800AD002A08AE0006300310AB0DAC0DAD0DA7
:10005800AE0DFF3E031D28282E08F5002D08F400DC
:100068002C08F3002B08F2000030AF001230B0006B
:100078007A30B1000030B2002708B3002808B40075
:100088002908B5002A08B60006300310B30DB40DD0
:10009800B50DB60DFF3E031D4928B309B409B509CE
:1000A800B609B30A0319B40A0319B50A0319B60A3B
:1000B8003308AF0734080318340F63286428B007DF
:1000C80035080318350F69286A28B1073608031858
:1000D800360AB2073208F9003108F8003008F7008C
:1000E8002F08F6000A128A110A210A128A117308C7
:1000F80083120313B8007208B700013038020030C9
:1001080003193702031C89288A28F0282708AB001E
:100118002808AC002908AD002A08AE0004300310F6
:10012800AB0DAC0DAD0DAE0DFF3E031D93282E0893
:10013800F5002D08F4002C08F3002B08F20000301D
:10014800AF001230B0007A30B1000030B20027089A
:10015800B3002808B4002908B5002A08B6000430FE
:100168000310B30DB40DB50DB60DFF3E031DB42835
:10017800B309B409B509B609B30A0319B40A0319CE
:10018800B50A0319B60A3308AF0734080318340F41
:10019800CE28CF28B00735080318350FD428D5281E
:1001A800B10736080318360AB2073208F9003108D1
:1001B800F8003008F7002F08F6000A128A110A2101
:1001C8000A128A11730883120313B8007208B70061
:1001D800831603131815F0280130831238020030F3
:1001E800031937020318F928FA280929370883164A
:1001F80003139900181398161812831203139817EB
:1002080018131816981109290929080083120313CD
:10021800A201F51F102911291E29F209F309F40971
:10022800F509F20A0319F30A0319F40A0319F50A7E
:10023800A201A20AF91F212922293229F609F70960
:10024800F809F909F60A0319F70A0319F80A03194C
:10025800F90A0130A0002008A20632290030A600C1
:100268000030A5000030A4000030A3007508740415
:10027800730472040319412942299529A101A10A8D
:1002880053290130A0000310F20DF30DF40DF50D04
:10029800A00B47290130A0002008A1075329F51F0A
:1002A800562957294529592959290130A0000310F1
:1002B800A30DA40DA50DA60DA00B5B297508790249
:1002C800031D702974087802031D702973087702CA
:1002D800031D702972087602031C73297429842966
:1002E8007208F6027308031C730FF7027408031CE4
:1002F800740FF8027508031C750FF902231484297A
:1003080001300310F50CF40CF30CF20CFF3E031D46
:1003180085290130A102031D92299329592995297C
:1003280095292208031999299A29A629A309A40914
:10033800A509A609A30A0319A40A0319A50A0319FA
:10034800A60AA6292608F5002508F4002408F300C3
:100358002308F200AF2908000A128A11A7220A12FC
:100368008A1107300A128A114A220A128A110030A9
:1003780083120313AA000030A9002530A80080309A
:10038800A7000A128A111D200A128A11CB290A1203
:100398008A11C0220A128A1183120313B90039087C
:1003A800BA003A0A031DD929DA29E5290A128A115D
:1003B800C0220A128A1183120313B9003908BF0038
:1003C8002D2AFE303A06031DEA29EB29F6290A12DE
:1003D8008A11C0220A128A1183120313B90039083C
:1003E800BE002D2AFD303A06031DFB29FC29072AE9
:1003F8000A128A11C0220A128A1183120313B90041
:100408003908BD002D2AFC303A06031D0C2A0D2A96
:10041800182A0A128A11C0220A128A118312031397
:10042800B9003908BC002D2AFB303A06031D1D2AE5
:100438001E2A2D2A0A128A11C0220A128A11831230
:100448000313B9003908BB002D2A2D2A2D2A2D2A7D
:100458002D2A3F0885003E0886003D0888003C0399
:10046800031D372A382A3A2A09143C2A09103C2A3B
:100478003B03031D402A412A432A8914CB298910AA
:10048800CB29CB29CB290A128A110C28F400832AFC
:10049800831603130F128F120F13A52A8316031343
:1004A8000F168F120F13A52A831603130F128F1618
:1004B8000F13A52A831603130F168F160F13A52AD9
:1004C800831603130F128F120F17A52A831603130F
:1004D8000F168F120F17A52A831603130F128F16E4
:1004E8000F17A52A831603130F168F160F17A52AA1
:1004F800831603130F128F160F17A52AA52A74083F
:10050800F200F3017308003A03198B2A7C2A720857
:10051800003A03194C2A013A0319522A033A0319DB
:10052800582A013A03195E2A073A0319642A013A3C
:1005380003196A2A033A0319702A013A0319762A19
:100548007C2A0F140800831603138501860188018D
:1005580087018901871707178712071687158316DA
:100568000317880189018312031385018601880115
:1005780087018901BF2A0800C12A831203138C1E30
:10058800C62AC72AC12AC82A1A08CA2A080071080E
:0C0598008A00700E8300FE0E7E0E09002B
:04400E00F4E3FFFFD9
:00000001FF
