:020000040000FA
:060000000A128A110C280F
:10000800FE00030EF0000A08F1000A128A11A12A64
:100018000A128A110F28F901FA01FB01831203134E
:10002800BD01BE01BF01C001C101C201C301C401BC
:10003800C501C601C701C801C901CA0183010A1265
:100048008A11B929831203132808AC002908AD00C6
:100058002A08AE002B08AF0006300310AC0DAD0D1A
:10006800AE0DAF0DFF3E031D31282F08A3002E084B
:10007800A2002D08A1002C08A0000030B00012300A
:10008800B1007A30B2000030B3002808B400290863
:10009800B5002A08B6002B08B70006300310B40DC7
:1000A800B50DB60DB70DFF3E031D5228B409B509AD
:1000B800B609B709B40A0319B50A0319B60A031928
:1000C800B70A3408B00735080318350F6C286D28AF
:1000D800B10736080318360F72287328B207370895
:1000E8000318370AB3073308A7003208A6003108F7
:1000F800A5003008A4000A128A1113210A128A11D5
:10010800831203132108B9002008B800013039020E
:10011800003003193802031C92289328F92828086C
:10012800AC002908AD002A08AE002B08AF00043047
:100138000310AC0DAD0DAE0DAF0DFF3E031D9C2899
:100148002F08A3002E08A2002D08A1002C08A0004B
:100158000030B0001230B1007A30B2000030B30085
:100168002808B4002908B5002A08B6002B08B700EB
:1001780004300310B40DB50DB60DB70DFF3E031DC9
:10018800BD28B409B509B609B709B40A0319B50AEF
:100198000319B60A0319B70A3408B0073508031853
:1001A800350FD728D828B10736080318360FDD28A9
:1001B800DE28B20737080318370AB3073308A70041
:1001C8003208A6003108A5003008A4000A128A11D6
:1001D80013210A128A11831203132108B900200877
:1001E800B800831603131815F92801308312390251
:1001F8000030031938020318022903291229380884
:1002080083160313990018139816181283120313F0
:100218009817181318169811122912290800F401B2
:1002280083120313A31F19291A292729A009A10931
:10023800A209A309A00A0319A10A0319A20A03190A
:10024800A30AF401F40AA71F2A292B293B29A40988
:10025800A509A609A709A40A0319A50A0319A60A44
:100268000319A70A0130F2007208F4063B2900308E
:10027800F8000030F7000030F6000030F5002308E1
:1002880022042104200403194A294B299E29F30139
:10029800F30A5C290130F2000310A00DA10DA20D94
:1002A800A30DF20B50290130F2007208F3075C2904
:1002B800A31F5F2960294E29622962290130F200B3
:1002C8000310F50DF60DF70DF80DF20B6429230850
:1002D8002702031D792922082602031D79292108EE
:1002E8002502031D792920082402031C7C297D2965
:1002F8008D292008A4022108031C210FA502220829
:10030800031C220FA6022308031C230FA70275143F
:100318008D2901300310A30CA20CA10CA00CFF3EE8
:10032800031D8E290130F302031D9B299C29622994
:100338009E299E2974080319A229A329AF29F50922
:10034800F609F709F809F50A0319F60A0319F70A6D
:100358000319F80AAF297808A3007708A2007608DD
:10036800A1007508A000B82908000A128A117D2288
:100378000A128A1107300A128A1120220A128A11D7
:10038800003083120313AB000030AA002530A90007
:100398008030A8000A128A1126200A128A11D6294A
:1003A800D629D6290A128A11A9220A128A11003AD4
:1003B8000319DF29E029D629E1290A128A11962290
:1003C8000A128A1183120313BA00BB014608BC0043
:1003D8003C073D3E84003A0883138000840A3B08AA
:1003E80080000130BA003A08C60704304602031CF0
:1003F800FE29FF29012AC601012A3D0885003F0878
:1004080086004108880043034404031D0C2A0D2A72
:100418000F2A0914112A0910112A45034604031D3D
:10042800162A172A192A8914D6298910D629D629CD
:10043800D6290A128A110C28F400592A83160313A4
:100448000F128F120F137B2A831603130F168F12A6
:100458000F137B2A831603130F128F160F137B2A91
:10046800831603130F168F160F137B2A8316031395
:100478000F128F120F177B2A831603130F168F1272
:100488000F177B2A831603130F128F160F177B2A59
:10049800831603130F168F160F177B2A8316031361
:1004A8000F128F160F177B2A7B2A7408F200F301AC
:1004B8007308003A0319612A522A7208003A03198C
:1004C800222A013A0319282A033A03192E2A013A43
:1004D8000319342A073A03193A2A013A0319402A18
:1004E800033A0319462A013A03194C2A522A0F14CF
:1004F8000800831603138501860188018701890195
:100508008717071787120716871583160317880199
:1005180089018312031385018601880187018901F6
:10052800952A0800972A831203138C1E9C2A9D2A59
:10053800972A9E2A1A08A02A0800A22A71088A0067
:10054800700E8300FE0E7E0E090000308312031326
:080558008C1A0130AF2A0800E3
:04400E00F4E3FFFFD9
:00000001FF
