:020000040000FA
:060000000A128A110C280F
:10000800FE00030EF1000A08F2000A128A157B2F7F
:100018000A128A110F28F901FA0183120313D10178
:10002800D201D301D40183010A128A11242A83122E
:10003800031331088039B2003208BB003108B2001E
:100048003207B3003308C200B01F2B282C282E28F3
:1000580042142E2842080319322833284428420A19
:10006800031D3728382841280030B1000030B0007F
:100078000030AF000030AE004128B017B1014D2864
:100088000030B1000030B0000030AF000030AE00EA
:100098004D282D088039B2003208BB062D08B20061
:1000A8003207B3003308C300AC1F5B285C285E2806
:1000B80043145E2843080319622863287428430AF6
:1000C800031D6728682871280030AD000030AC0097
:1000D8000030AB000030AA007128AC17AD017C28B5
:1000E8000030AD000030AC000030AB000030AA009A
:1000F8002D082C042B042A04031D832884289E28F9
:100108000030B1000030B0000030AF000030AE0069
:100118008030B0047F30B1043B08B2003208B1042B
:100128003108AD003008AC002F08AB002E08AA003B
:10013800232A232A4208031DA228A328B528003011
:10014800B1000030B0000030AF000030AE00310820
:10015800AD003008AC002F08AB002E08AA00232AF7
:10016800232A4308B200B301B209B309B20A03193A
:10017800B30A42083207B40033080318330AB5003B
:1001880034087F3EBC0035080318013E003EBD0020
:100198003108BA003008B9002F08B8002E08B70097
:1001A8000030B1000030B0000030AF000030AE00C9
:1001B8000030C1000030C0000030BF000030BE0079
:1001C800C301342943080319EA28EB280D29013013
:1001D800B2000310B70DB80DB90DBA0DB20BED286A
:1001E8000130B2000310AE0DAF0DB00DB10DB20B62
:1001F800F628C11F0029012903292E1403290130DB
:10020800B2000310BE0DBF0DC00DC10DB20B052904
:100218000D292D083A02031D1B292C083902031D3C
:100228001B292B083802031D1B292A083702031C27
:100238001E291F292F2941172A08B7022B08031C3A
:100248002B0FB8022C08031C2C0FB9022D08031C15
:100258002D0FBA022F290130B2003208C307342902
:100268001A304302031C39293A29E6283B293A085F
:1002780039043804370403194229432965293E14EF
:10028800652965290130B2000310AE0DAF0DB00D20
:10029800B10DB20B4829C11F5229532955292E14D3
:1002A80055290130B2000310BE0DBF0DC00DC10DA0
:1002B800B20B5729FF30BC070318BD0AFF30BD0732
:1002C8006529B01F6829692946296A29C301C11F00
:1002D8006E296F298F29FF303E05B200FF303F0598
:1002E800B300FF304005B4007F304105B500350844
:1002F8003404330432040319822983298629C3016B
:10030800C30A8F292E1C89298A298F29C301C30A68
:100318008F298F298F294308031993299429C729DD
:100328000130AE07003003180130AF070030031862
:100338000130B007003003180130B107311CA5297E
:10034800A629C7292E08B2002F08B3003008B40028
:100358003108B5000130B600350DB50CB40CB30C3E
:10036800B20CB60BB0293508B1003408B000330818
:10037800AF003208AE000130BC070318BD0A0030D8
:10038800BD07C729C7293D08803AFF0080307F0292
:10039800031DD029FF303C02031CD329D429E329AB
:1003A800FF3083120313BC000030BD000030B100E1
:1003B8000030B0000030AF000030AE00E3298312F7
:1003C80003133D08803AFF0080307F02031DEE29A9
:1003D80001303C020318F129F229FF298312031383
:1003E800BC01BD010030B1000030B0000030AF00EA
:1003F8000030AE00BB01831203133C08B200320880
:10040800C200421C082A092A0B2AB0170F2A7F307B
:10041800B2003208B0054208B2000310320CB30033
:100428003308B1003B08B2003208B1043108AD000E
:100438003008AC002F08AB002E08AA00232A0800B9
:100448000A128A158F270A128A1103300A128A1192
:10045800D2260A128A11F301F40102300A128A1113
:100468007B250A128A110A128A15A5270A128A11EF
:100478000A128A1181270A128A1110308312031373
:1004880090000A128A155E270A128A110230831216
:100498000313CD004D08F50001300A128A15BF2755
:1004A8000A128A11083083120313A3000030A40033
:1004B80012300A128A11CC270A128A11F501F50A9C
:1004C80002300A128A15BF270A128A1108308312CD
:1004D8000313A3000030A40001300A128A11CC27AC
:1004E8000A128A11023083120313CF00E730CE00BC
:1004F800FF30CD00CD0B7E2ACE0B7E2ACF0B7E2A75
:10050800852A0A128A155E270A128A116E3083120A
:100518000313CD004D08D000912A9B30831203139A
:1005280054020318982A992A9B2A09159D2A091109
:100538009D2A540888008F018E0105160000831239
:1005480003130512A72A851CAA2AAB2AA72A101466
:10055800AD2A8518B02AB12AAD2A10100F08D2008A
:100568000E08D1005108F3005208F4000030F41BC3
:10057800FF30F500F60001300A128A111B240A1216
:100588008A11760883120313B1007508B000740845
:10059800AF007308AE004230AD006B30AC0047309E
:1005A800AB00AE30AA000A128A111B200A128A1167
:1005B800831203132D08C7002C08C6002B08C5009A
:1005C8002A08C4000A128A11DF240A128A11831227
:1005D80003134508D2004408D1005108013ED10058
:1005E80052080318013E003ED2005208803AFF002C
:1005F80080307F02031D022B02305102031C052BA1
:10060800062BF12B831203135208803AFF00813026
:100618007F02031D112B913051020318142B152B47
:10062800F12B0A128A155E270A128A11F501F50ABA
:1006380001300A128A15BF270A128A11083083125C
:100648000313A3000030A4002F300A128A11CC270C
:100658000A128A110A30F3000030F40083120313DF
:100668005208F6005108F5000A128A116D260A127E
:100678008A117308303E83120313CD004D08D3004E
:100688000E30CD004D08F50001300A128A15BF273B
:100698000A128A110830F4000030F500831203139F
:1006A80053080A128A112F270A128A110A30F300F6
:1006B8000030F400831203135208F6005108F500C5
:1006C8000A128A11FA250A128A117408831203136E
:1006D800D2007308D1000A30F3000030F400520849
:1006E800F6005108F5000A128A116D260A128A11BD
:1006F8007308303E83120313CD004D08D3000D302C
:10070800CD004D08F50001300A128A15BF270A12DC
:100718008A110830F4000030F500831203135308DF
:100728000A128A112F270A128A110A30F3000030A0
:10073800F400831203135208F6005108F5000A1258
:100748008A11FA250A128A11740883120313D20037
:100758007308D1000A30F3000030F4005208F600A4
:100768005108F5000A128A116D260A128A117308B7
:10077800303E83120313CD004D08D3000C30CD005A
:100788004D08F50001300A128A15BF270A128A118E
:100798000830F4000030F5008312031353080A12DE
:1007A8008A112F270A128A110F3083120313CD00E2
:1007B8004D08F50001300A128A15BF270A128A115E
:1007C800083083120313A3000030A4003B300A1240
:1007D8008A11CC270A128A110B2C0A128A155E2755
:1007E8000A128A11F501F50A01300A128A15BF2783
:1007F8000A128A11083083120313A3000030A400E0
:1008080022300A128A11CC270A128A110B2C413085
:1008180083120313CE00ED30CD00CD0B112CCE0B7F
:10082800112C162C912A912A0A128A110C2883124B
:100838000313A40024080319222C232C372CF61F99
:10084800262C272C372C7309A6007409A7007509D4
:10085800A8007609A900A60A0319A70A0319A80A75
:100868000319A90A3F2C7608A9007508A80074087E
:10087800A7007308A6007608750474047304031DA2
:10088800462C472C512C0030F6000030F500003083
:10089800F4000030F300DE2CDE2C9630A000200897
:1008A800A500642C0130A0002008A5070130031022
:1008B800A90CA80CA70CA60CFF3E031D5B2C642CEE
:1008C800FE302905031D692C6A2C562C872C872C91
:1008D8000130A0002008A5070130A6070030031842
:1008E8000130A707003003180130A80700300318AB
:1008F8000130A90701300310A90CA80CA70CA60CFD
:10090800FF3E031D7F2CFF302905031D8C2C8D2CE9
:100918006C2C9B2C9B2C0130A5020130A0000310ED
:10092800A60DA70DA80DA90DA00B932C9B2CA81BF9
:100938009E2C9F2CA62C023025020318A42CA52C33
:100948008F2CA62C2518A92CAA2CB22CFF30A60572
:10095800FF30A7057F30A805FF30A9050310A50CB7
:100968002508A000A101A201A30118300310A00DC1
:10097800A10DA20DA30DFF3E031DBA2C2008A6044D
:100988002108A7042208A8042308A9042408031995
:10099800CE2CCF2CD52CF61FD22CD32CD52CA91786
:1009A800D52C2908F6002808F5002708F4002608A1
:1009B800F300DE2C0800831203134408C80045081E
:1009C800C9004608CA004708CB0003104A0D4B0D62
:1009D800CC004C08F8007808031DF32CF42CFE2CEE
:1009E8000030C7000030C6000030C5000030C40029
:1009F8007A2D7A2D4408C8004508C9004608CA005F
:100A08004708CB001F300310CB0CCA0CC90CC80C0C
:100A1800FF3E031D072D4808CC004C08F700C617F9
:100A2800FF30C405FF30C505FF30C6050030C705D7
:100A38009630F802F81F212D222D472D7808803A8C
:100A4800973E0318282D292D342D0030C70000307B
:100A5800C6000030C5000030C4007A2D7A2D342D30
:100A680001300310C70CC60CC50CC40CFF3E031D97
:100A7800352D0130C8004808F807031D442D452DC1
:100A8800342D6A2D6A2D20307802031C4C2D4D2DF3
:100A9800632D0030C7000030C6000030C5000030AC
:100AA800C4007A2D7A2D632D0130C8000310C40DBF
:100AB800C50DC60DC70DC80B5A2D0130F8027808B0
:100AC800031D672D682D582D6A2D6A2D7708031987
:100AD8006E2D6F2D7A2DC409C509C609C709C40A28
:100AE8000319C50A0319C60A0319C70A0800F7003B
:100AF800922D831203131F139F13C32D8312031305
:100B08001F179F13C32D831203131F139F17C32D82
:100B1800831203131F179F17C32DC32D7708F500E2
:100B2800F6017608003A03199A2D8C2D7508003ABB
:100B380003197D2D013A0319822D033A0319872DD4
:100B48008C2DC32D831203131F119F111F129F1287
:100B5800E02D831203131F159F111F129F12E02D02
:100B6800831203131F119F151F129F12E02D83126A
:100B780003131F119F111F129F16E02DE02D7308FC
:100B8800F500F6017608003A0319CB2DBB2D750840
:100B9800003A0319A62D013A0319AD2D033A03199A
:100BA800B42DBB2DE02D831603139F13ED2D831653
:100BB80003139F17ED2DED2D7408F500F601760847
:100BC800003A0319E82DDB2D7508003A0319D72DD3
:100BD800DB2D831203131F140C13831603130C1736
:100BE8000B178B17831203139F1408008312031328
:100BF800A101F41F002E012E092EF309F409F30AAE
:100C08000319F40AA101A10A092EF61F0C2E0D2EB4
:100C1800172EF509F609F50A0319F60A0130F70047
:100C28007708A106172EA201A301730874040319FB
:100C38001E2E1F2E5C2EA001A00A2E2E013003109E
:100C4800F30DF40DFF3E031D232E0130F700770846
:100C5800A0072E2EF41F312E322E222E342E342EA3
:100C680001300310A20DA30DFF3E031D352E74089D
:100C78007602031D412E73087502031C442E452E6F
:100C88004D2E7308F5027408031CF603F6022214AD
:100C98004D2E01300310F40CF30CFF3E031D4E2EB5
:100CA8000130A002031D592E5A2E342E5C2E5C2EC4
:100CB80021080319602E612E672EA209A309A20A32
:100CC8000319A30A672E2308F4002208F3006C2EE8
:100CD800080083120313A101F61F732E742E7C2EB5
:100CE800F509F609F50A0319F60AA101A10A7C2EED
:100CF800F41F7F2E802E862EF309F409F30A0319B8
:100D0800F40A862E7308740403198B2E8C2EC12EB8
:100D1800A001A00A9B2E01300310F30DF40DFF3E35
:100D2800031D902E0130F7007708A0079B2EF41FB3
:100D38009E2E9F2E8F2EA12EA12E74087602031DA3
:100D4800A72E73087502031CAA2EAB2EB22E7308A9
:100D5800F5027408031CF603F602B22E01300310E4
:100D6800F40CF30CFF3E031DB32E0130A002031D4B
:100D7800BE2EBF2EA12EC12EC12E21080319C52EAD
:100D8800C62ECC2EF509F609F50A0319F60ACC2E5B
:100D98007608F4007508F300D12E0800F5000B2F33
:100DA800831603130F128F120F132D2F831603139D
:100DB8000F168F120F132D2F831603130F128F1672
:100DC8000F132D2F831603130F168F160F132D2FA6
:100DD800831603130F128F120F172D2F8316031369
:100DE8000F168F120F172D2F831603130F128F163E
:100DF8000F172D2F831603130F168F160F172D2F6E
:100E0800831603130F128F160F172D2F2D2F75080A
:100E1800F300F4017408003A0319132F042F730820
:100E2800003A0319D42E013A0319DA2E033A0319AA
:100E3800E02E013A0319E62E073A0319EC2E013A7F
:100E48000319F22E033A0319F82E013A0319FE2E5C
:100E5800042F0F14080083120313A2000430740631
:100E68007504031D382F392F6B2F22080F39F60010
:100E78007608A0002208F039F6007608A1000914C7
:100E88002108F60004300310F60CFF3E031D472F1F
:100E980076080A128A15DD270A128A1183120313AB
:100EA8008914562F572F0000831203138910200826
:100EB8000A128A15DD270A128A118312031389146C
:100EC800652F662F0000831203138910802F0830C6
:100ED80074067504031D712F722F802F09142208C0
:100EE800860089142930F600F60B782F000083124B
:100EF80003138910802F802F0800831203138601A3
:100F08000430F6003D30F500F50B882FF60B882FDE
:100F18008D2F30300A128A156B270A128A11D030A9
:100F2800F500F50B952F30300A128A156B270A1237
:100F38008A110630F500F50B9F2F000030300A1299
:100F48008A156B270A128A110630F500F50BAA2FAD
:100F5800000038300A128A156B270A128A111430D9
:100F68000A128A156B270A128A1106300A128A1584
:100F78006B270A128A110C300A128A156B270A127B
:100F88008A1102300A128A156B270A128A11080080
:100F980083120313A700A501A601EC2F2408F5006E
:100FA8002308F4002508270784000A128A15002060
:100FB8000A128A110A128A112F270A128A1101307D
:100FC80083120313A5070318A60A0030A607EC2FFF
:100FD8002508270784000A128A1500200A128A1198
:0E0FE800003A031DF82FF92FD22FFA2F080020
:1010000008308A000408840A8207003446347234A7
:1010100061346E346334693473342034533461344E
:101020006E34613462347234693461340034423471
:10103000693465346E34763465346E3469346434BE
:101040006F342C34203470346F34723400344F34A5
:101050007534743420346F3466342034523461343F
:101060006E34673465340034443469347334743412
:1010700061346E346334653420343D3420340034BC
:0610800063346D340034FE
:101EBC0000300A128A156B270A128A1501300A1291
:101ECC008A156B270A128A150800F4008312031373
:101EDC000910740886008914A630F300F30B742FD4
:101EEC0000008312031389100800831203130C1FC4
:101EFC00802F812F882F0C131E08F0007008D4003F
:101F0C009F14882F72088A00710E8300FE0E7E0EBD
:101F1C0009008316031386010F30850088018701A1
:101F2C00890183160317880189010814831203138E
:101F3C0085018601880187018901A42F0800831679
:101F4C00031307159B309200831203139713171377
:101F5C00171097101715971506309500171697162A
:101F6C008C101214921412158C1083160313071173
:101F7C000800F6007603031DC42FC52FCD2F75085E
:101F8C007F3E0A128A156B270A128A15DC2F023043
:101F9C007606031DD22FD32FDC2F7508BF3E0A12F5
:101FAC008A156B270A128A15DC2FDC2F0800F30028
:101FBC00731CE12FE22FE62F831203130616E92F71
:101FCC00831203130612F31CEC2FED2FEF2F861642
:101FDC00F02F8612731DF32FF42FF62F0617F72F01
:101FEC000613F31DFA2FFB2FFD2F8617FF2F8613D9
:041FFC00FF2F0800AB
:04400E00F4E3FFFFD9
:00000001FF
