:020000040000FA
:060000000A128A110C280F
:10000800FE00030EF1000A08F2000A128A11892E76
:100018000A128A110F280A128A1114270A128A1141
:10002800BE000A128A1115270A128A11BF000A1285
:100038008A1116270A128A11C0000A128A11172774
:100048000A128A11C1000A128A1118270A128A1183
:10005800C200B201B301B401B501B601B701B801DC
:10006800B901BA01BB01BC01BD01F701F801F901F1
:10007800FA0183010A128A1141280A128A11D82624
:100088000A128A1103300A128A111F250A128A11CC
:10009800F301F40102300A128A11AE240A128A11FD
:1000A8000A128A11A6260A128A110A128A11CE2564
:1000B8000A128A110A128A110B270A128A110A12C5
:1000C8008A11FE260A128A11F501F50A01300A1270
:1000D8008A116B260A128A11083083120313A300AF
:1000E8000030A40001300A128A1119260A128A1156
:1000F800F501F50A02300A128A116B260A128A11D2
:10010800083083120313A3000030A40012300A122F
:100118008A1119260A128A11023083120313AA00BF
:10012800E730A900FF30A800A80B9828A90B982849
:10013800AA0B98289F280A128A11FE260A128A11E9
:100148006E3083120313A8002808B100AC28AC282D
:10015800F501F50A01300A128A116B260A128A1172
:10016800083083120313A3000030A40044300A129D
:100178008A1119260A128A11F501F50A02300A12A3
:100188008A116B260A128A11083083120313A300FE
:100198000030A40098300A128A1119260A128A110E
:1001A8000A128A11C0260A128A1183120313A800A0
:1001B8002808B10023303106031DE328E428D42899
:1001C80083120313BD01BD0ABC010A128A11FE265F
:1001D8000A128A11F501F50A01300A128A116B26F2
:1001E8000A128A11083083120313A3000030A400F6
:1001F80082300A128A1119260A128A1103290A1250
:100208008A11C0260A128A1183120313A80028082B
:10021800B1003C08013EA8002808F50002300A1287
:100228008A116B260A128A110830F4000030F50092
:100238008312031331080A128A117C250A128A11C3
:10024800013083120313A8002808BC072A3031069E
:10025800031D2F2930293229E428E4283108A80071
:100268003C08FF3E323E8400280883138000053096
:100278003C06031D40294129D429A33083120313C6
:10028800A9005430A800A80B4729A90B472900004A
:1002980083120313AF01B0013008803AFF008030A9
:1002A8007F02031D592905302F02031C5C295D2993
:1002B8005F29E029E029831203132F083E3E8400BA
:1002C80083130008A800A9012808AB002908AC007E
:1002D8002F08323E84000008A800A9012808AD00B4
:1002E8002908AE002E082C06031D7C292D082B0694
:1002F80003197F298029BD290A128A11FE260A12AC
:100308008A11F501F50A01300A128A116B260A12C0
:100318008A11083083120313A3000030A40034307C
:100328000A128A1119260A128A11F501F50A0230F1
:100338000A128A116B260A128A11083083120313D3
:10034800A3000030A4008E300A128A1119260A125E
:100358008A11023083120313AA00E730A900FF3084
:10036800A800A80BB529A90BB529AA0BB529BC2942
:10037800E428013083120313AF070318B00A0030D2
:10038800B0073008803AFF0080307F02031DCE2975
:1003980005302F02031CD129D2295F29E029E02941
:1003A800831203133D03031DDA29DB29E0290329FE
:1003B8000329E029D428E0290A128A11FE260A1204
:1003C8008A11F501F50A01300A128A116B260A1200
:1003D8008A11083083120313A3000030A40064308C
:1003E8000A128A1119260A128A11F501F50A023031
:1003F8000A128A116B260A128A1108308312031313
:10040800A3000030A40023300A128A1119260A1208
:100418008A11202A0A128A1174220A128A11831256
:100428000313A8002808B1002A303106031D1D2A2D
:100438001E2A202AE428E42883120313091D252AEA
:10044800262A0E2A272A0A128A11FE260A128A1139
:10045800F501F50A01300A128A116B260A128A116F
:10046800083083120313A3000030A40054300A128A
:100478008A1119260A128A11F501F50A02300A12A0
:100488008A116B260A128A11083083120313A300FB
:100498000030A40074300A128A1119260A128A112F
:1004A8000F30831203139500043083120313AA003C
:1004B8002C30A900AB30A800A80B602AA90B602A31
:1004C800AA0B602A0A128A11FE260A128A1106301D
:1004D800831203139500AC28AC280A128A110C2841
:1004E800831203130810881408158815081A7D2A22
:1004F8007E2A922A1130F4003A30F300F30B822A54
:10050800F40B822A0000882A83120313081E8D2AFE
:100518008E2A882A8F2A3130082C082C881A952A86
:10052800962AAA2A1130F4003A30F300F30B9A2ADB
:10053800F40B9A2A0000A02A83120313881EA52A06
:10054800A62AA02AA72A3230082C082C081BAD2A74
:10055800AE2AC22A1130F4003A30F300F30BB22A63
:10056800F40BB22A0000B82A83120313081FBD2A0D
:10057800BE2AB82ABF2A3330082C082C881BC52A63
:10058800C62ADA2A1130F4003A30F300F30BCA2AEB
:10059800F40BCA2A0000D02A83120313881FD52A15
:1005A800D62AD02AD72A4130082C082C08148810BB
:1005B80008158815081AE12AE22AF62A1130F400EB
:1005C8003A30F300F30BE62AF40BE62A0000EC2A93
:1005D80083120313081EF12AF22AEC2AF32A343074
:1005E800082C082C881AF92AFA2A0E2B1130F40044
:1005F8003A30F300F30BFE2AF40BFE2A0000042B1A
:1006080083120313881E092B0A2B042B0B2B35305E
:10061800082C082C081B112B122B262B1130F40048
:100628003A30F300F30B162BF40B162B00001C2B9F
:1006380083120313081F212B222B1C2B232B36304C
:10064800082C082C881B292B2A2B3E2B1130F40050
:100658003A30F300F30B2E2BF40B2E2B0000342B27
:1006680083120313881F392B3A2B342B3B2B423030
:10067800082C082C0814881408118815081A452B0A
:10068800462B5A2B1130F4003A30F300F30B4A2B67
:10069800F40B4A2B0000502B83120313081E552B12
:1006A800562B502B572B3730082C082C881A5D2BCB
:1006B8005E2B722B1130F4003A30F300F30B622BEF
:1006C800F40B622B0000682B83120313881E6D2B1A
:1006D8006E2B682B6F2B3830082C082C081B752BB9
:1006E800762B8A2B1130F4003A30F300F30B7A2B77
:1006F800F40B7A2B0000802B83120313081F852B21
:10070800862B802B872B3930082C082C881B8D2BA7
:100718008E2BA22B1130F4003A30F300F30B922BFE
:10072800F40B922B0000982B83120313881F9D2B28
:100738009E2B982B9F2B4330082C082C08148814C8
:1007480008158811081AA92BAA2BBE2B1130F40002
:100758003A30F300F30BAE2BF40BAE2B0000B42BA6
:1007680083120313081EB92BBA2BB42BBB2B2A30C8
:10077800082C082C881AC12BC22BD62B1130F40058
:100788003A30F300F30BC62BF40BC62B0000CC2B2E
:1007980083120313881ED12BD22BCC2BD32B3030B2
:1007A800082C082C081BD92BDA2BEE2B1130F4005F
:1007B8003A30F300F30BDE2BF40BDE2B0000E42BB6
:1007C80083120313081FE92BEA2BE42BEB2B2330AE
:1007D800082C082C881BF12BF22B062C1130F40066
:1007E8003A30F300F30BF62BF40BF62B0000FC2B3E
:1007F80083120313881F012C022CFC2B032C44307A
:10080800082C082C6E30082C080004308A000408D4
:10081800840A820700344234693465346E3476348D
:1008280065346E34693464346F342034413474343C
:10083800743465342E340034463461346D3469348C
:100848006C34693461342034533461346E34613427
:100858006234723469346134003449346E34743427
:1008680072346F34643475347A34633461342034C8
:100878006C346C34613476346534003443346F340A
:100888006E34743472346134733465346E34613464
:1008980020346D3461346C34613400345034723433
:1008A8006534733469346F346E34653420342334DA
:1008B8002034703461347234613400344134623429
:1008C8007234693465346E3464346F34203470346F
:1008D80075346534723474346134003441346334AB
:1008E8006334653473346F34203462347234693459
:1008F8006E346434613464346F340034423469349F
:1009080065346E34763465346E34693464346F34E7
:1009180020343A342934003443346F346E34743418
:1009280072346134733465346E3461343A3400346B
:1009380069346E34743465346E34743465346C34AC
:100948006F34003469346E34693463346934613423
:100958007234003483120313A000BF2C1F139F139B
:10096800E82C1F179F13E82C1F139F17E82C1F173D
:100978009F17E82CE82C2008F500F6017608003AC5
:100988000319C72CBB2C7508003A0319B22C013A7D
:100998000319B52C033A0319B82CBB2CE82C1F11EA
:1009A8009F111F129F12052D1F159F111F129F12B5
:1009B800052D1F119F151F129F12052D1F119F1125
:1009C8001F129F16052D052D7308F500F6017608F0
:1009D800003A0319F02CE22C7508003A0319D32CBD
:1009E800013A0319D82C033A0319DD2CE22C052D02
:1009F800831603139F13122D831603139F17122DAB
:100A0800122D7408F500F6017608003A03190D2D29
:100A1800002D7508003A0319FC2C002D83120313CE
:100A28001F140C13831603130C170B178B17831241
:100A380003139F140800F500582D831603130F1293
:100A48008F120F137A2D831603130F168F120F139D
:100A58007A2D831603130F128F160F137A2D831610
:100A680003130F168F160F137A2D831603130F1205
:100A78008F120F177A2D831603130F168F120F1765
:100A88007A2D831603130F128F160F177A2D8316DC
:100A980003130F168F160F177A2D831603130F12D1
:100AA8008F160F177A2D7A2D7508F300F401740844
:100AB800003A0319602D512D7308003A0319212DAE
:100AC800013A0319272D033A03192D2D013A031969
:100AD800332D073A0319392D013A03193F2D033AEB
:100AE8000319452D013A03194B2D512D0F140800F8
:100AF80083120313A200043074067504031D852DA8
:100B0800862DB82D22080F39F6007608A000220895
:100B1800F039F6007608A10009142108F60004301F
:100B28000310F60CFF3E031D942D76080A128A1155
:100B380048260A128A11831203138914A32DA42D9F
:100B4800000083120313891020080A128A1148260C
:100B58000A128A11831203138914B22DB32D0000CF
:100B6800831203138910CD2D083074067504031DF4
:100B7800BE2DBF2DCD2D09142208860089142930D9
:100B8800F600F60BC52D0000831203138910CD2D36
:100B9800CD2D08008312031386010430F6003D3082
:100BA800F500F50BD52DF60BD52DDA2D30300A12C0
:100BB8008A11EE260A128A11D030F500F50BE22DC3
:100BC80030300A128A11EE260A128A110630F50010
:100BD800F50BEC2D000030300A128A11EE260A12AD
:100BE8008A110630F500F50BF72D000038300A128F
:100BF8008A11EE260A128A1114300A128A11EE2678
:100C08000A128A1106300A128A11EE260A128A116D
:100C18000C300A128A11EE260A128A1102300A12C0
:100C28008A11EE260A128A11080083120313A700FC
:100C3800A501A601392E2408F5002308F40025088B
:100C4800270784000A128A1109240A128A110A1233
:100C58008A117C250A128A11013083120313A50711
:100C68000318A60A0030A607392E2508270784008E
:100C78000A128A1109240A128A11003A031D452E04
:100C8800462E1F2E472E0800F300731C4C2E4D2EA7
:100C9800512E831203130616542E831203130612C1
:100CA800F31C572E582E5A2E86165B2E8612731D4D
:100CB8005E2E5F2E612E0617622E0613F31D652E1B
:100CC800662E682E86176A2E86136A2E0800F6008E
:100CD8007603031D702E712E792E75087F3E0A1239
:100CE8008A11EE260A128A11882E02307606031D12
:100CF8007E2E7F2E882E7508BF3E0A128A11EE2698
:100D08000A128A11882E882E0800831203130C1FDA
:100D18008E2E8F2E9F2E0C131E08F0007008F900DF
:100D28009B3079020318992E9A2E9C2E09159D2E18
:100D380009119F149F2E72088A00710E8300FE0EFF
:100D48007E0E09008316031307159B309200831249
:100D580003139713171317109710171597150630C5
:100D68009500171697168C101214921412158C10E1
:100D780083160313071108006E30F5007508F60096
:100D8800CE2E0A128A1174220A128A11F5007508E9
:100D9800F600CE2E6E3076060319D32ED42EC52E2D
:100DA800D52E7608D72E08008316031386010F3038
:100DB8008500880187018901831603178801890145
:100DC80008148312031385018601880187018901AC
:100DD800ED2E0800F400831203130910740886002E
:100DE8008914A630F300F30BF72E000083120313C7
:100DF8008910080000300A128A11EE260A128A1198
:100E080001300A128A11EE260A128A11080083128A
:100E180003138801F03083160313880001080800C3
:0A0E280031343734333430343834B9
:04400E00F4E3FFFFD9
:00000001FF
