:020000040000FA
:060000000A128A110C280F
:10000800FE00030EF1000A08F2000A128A11BA2C47
:100018000A128A110F280A128A11C1270A128A1194
:10002800C0000A128A11C2270A128A11C1000A12D4
:100038008A11C3270A128A11C2000A128A11C42718
:100048000A128A11C3000A128A11C5270A128A11D4
:10005800C400B201B301B401B501B601B701B801DA
:10006800B901BA01BB01BC01BD01BE01BF01F70165
:10007800F801F901FA0183010A128A1143280A12C8
:100088008A1178270A128A1103300A128A11C225A6
:100098000A128A11F301F40102300A128A11512559
:1000A8000A128A110A128A112C270A128A110A12B4
:1000B8008A1171260A128A110A128A11B8270A129D
:1000C8008A110A128A119E270A128A1170300A129E
:1000D8008A1146270A128A110A128A11AB270A12B4
:1000E8008A11F501F50A01300A128A110E270A123F
:1000F8008A11083083120313A3000030A4001230C1
:100108000A128A11BC260A128A11F501F50A023070
:100118000A128A110E270A128A1108308312031351
:10012800A3000030A40073300A128A11BC260A12F8
:100138008A11023083120313AA00E730A900FF30A6
:10014800A800A80BA528A90BA528AA0BA528AC28A8
:100158000A128A11AB270A128A116E30831203130E
:10016800A8002808B100B928B928F501F50A013016
:100178000A128A110E270A128A11083083120313F1
:10018800A3000030A40044300A128A11BC260A12C7
:100198008A11F501F50A02300A128A110E270A128D
:1001A8008A11083083120313A3000030A40094308E
:1001B8000A128A11BC260A128A110A128A116027A9
:1001C8000A128A1183120313A8002808B1002330E9
:1001D8003106031DF028F128E12883120313BE011C
:1001E800BE0ABD010A128A11AB270A128A11F5014B
:1001F800F50A01300A128A110E270A128A110830EC
:1002080083120313A3000030A40064300A128A1179
:10021800BC260A128A1110290A128A1160270A12AA
:100228008A1183120313A8002808B1003D08013E73
:10023800A8002808F50002300A128A110E270A12AF
:100248008A110830F4000030F500831203133108D6
:100258000A128A111F260A128A1101308312031307
:10026800A8002808BD072A303106031D3C293D296E
:100278003F29F128F1283108A8003D08FF3E323E09
:10028800840028088313800005303D06031D4D298E
:100298004E29E129A33083120313A9005430A80082
:1002A800A80B5429A90B5429000083120313AF018A
:1002B800B0013008803AFF0080307F02031D6629B4
:1002C80005302F02031C69296A296C29ED29ED29BB
:1002D800831203132F08403E840083130008A800EC
:1002E800A9012808AB002908AC002F08323E840079
:1002F8000008A800A9012808AD002908AE002E08AA
:100308002C06031D89292D082B0603198C298D29F4
:10031800CA290A128A11AB270A128A11F501F50AAD
:1003280001300A128A110E270A128A110830831224
:100338000313A3000030A40034300A128A11BC262B
:100348000A128A11F501F50A02300A128A110E27DB
:100358000A128A11083083120313A3000030A40084
:100368008A300A128A11BC260A128A1102308312B4
:100378000313AA00E730A900FF30A800A80BC22980
:10038800A90BC229AA0BC229C929F1280130831255
:100398000313AF070318B00A0030B0073008803ADB
:1003A800FF0080307F02031DDB2905302F02031C6C
:1003B800DE29DF296C29ED29ED29831203133E0379
:1003C800031DE729E829ED2910291029ED29E1283D
:1003D800ED290A128A11AB270A128A11F501F50ACA
:1003E80001300A128A110E270A128A110830831264
:1003F8000313A3000030A40001300A128A11BC269E
:100408000A128A11F501F50A02300A128A110E271A
:100418000A128A11083083120313A3000030A400C3
:1004280023300A128A11BC260A128A112D2A0A12AE
:100438008A1184220A128A1183120313A800280839
:10044800B1002A303106031D2A2A2B2A2D2AF12829
:10045800F12883120313091D322A332A1B2A342A4E
:100468000A128A11AB270A128A11F501F50A01301E
:100478000A128A110E270A128A11083083120313EE
:10048800A3000030A40054300A128A11BC260A12B4
:100498008A11F501F50A02300A128A110E270A128A
:1004A8008A11083083120313A3000030A4007F30A0
:1004B8000A128A11BC260A128A110F3083120313FA
:1004C8009500B901B90A043083120313AA002C302D
:1004D800A900AB30A800A80B6F2AA90B6F2AAA0B9A
:1004E8006F2A0A128A11AB270A128A110630831260
:1004F80003139500B901B928B9280A128A110C28E2
:10050800831203130810881408158815081A8D2AF1
:100518008E2AA22A1130F4003A30F300F30B922A03
:10052800F40B922A0000982A83120313081E9D2AAE
:100538009E2A982A9F2A3130182C182C881AA52A06
:10054800A62ABA2A1130F4003A30F300F30BAA2A8B
:10055800F40BAA2A0000B02A83120313881EB52AB6
:10056800B62AB02AB72A3230182C182C081BBD2AF4
:10057800BE2AD22A1130F4003A30F300F30BC22A13
:10058800F40BC22A0000C82A83120313081FCD2ABD
:10059800CE2AC82ACF2A3330182C182C881BD52AE3
:1005A800D62AEA2A1130F4003A30F300F30BDA2A9B
:1005B800F40BDA2A0000E02A83120313881FE52AC5
:1005C800E62AE02AE72A4130182C182C081488104B
:1005D80008158815081AF12AF22A062B1130F4009A
:1005E8003A30F300F30BF62AF40BF62A0000FC2A43
:1005F80083120313081E012B022BFC2A032B343011
:10060800182C182C881A092B0A2B1E2B1130F400D1
:100618003A30F300F30B0E2BF40B0E2B0000142BC7
:1006280083120313881E192B1A2B142B1B2B3530FE
:10063800182C182C081B212B222B362B1130F400D8
:100648003A30F300F30B262BF40B262B00002C2B4F
:1006580083120313081F312B322B2C2B332B3630EC
:10066800182C182C881B392B3A2B4E2B1130F400E0
:100678003A30F300F30B3E2BF40B3E2B0000442BD7
:1006880083120313881F492B4A2B442B4B2B4230D0
:10069800182C182C0814881408118815081A552BBA
:1006A800562B6A2B1130F4003A30F300F30B5A2B17
:1006B800F40B5A2B0000602B83120313081E652BC2
:1006C800662B602B672B3730182C182C881A6D2B4B
:1006D8006E2B822B1130F4003A30F300F30B722B9F
:1006E800F40B722B0000782B83120313881E7D2BCA
:1006F8007E2B782B7F2B3830182C182C081B852B39
:10070800862B9A2B1130F4003A30F300F30B8A2B26
:10071800F40B8A2B0000902B83120313081F952BD0
:10072800962B902B972B3930182C182C881B9D2B27
:100738009E2BB22B1130F4003A30F300F30BA22BAE
:10074800F40BA22B0000A82B83120313881FAD2BD8
:10075800AE2BA82BAF2B4330182C182C0814881458
:1007680008158811081AB92BBA2BCE2B1130F400B2
:100778003A30F300F30BBE2BF40BBE2B0000C42B56
:1007880083120313081EC92BCA2BC42BCB2B2A3068
:10079800182C182C881AD12BD22BE62B1130F400E8
:1007A8003A30F300F30BD62BF40BD62B0000DC2BDE
:1007B80083120313881EE12BE22BDC2BE32B303052
:1007C800182C182C081BE92BEA2BFE2B1130F400EF
:1007D8003A30F300F30BEE2BF40BEE2B0000F42B66
:1007E80083120313081FF92BFA2BF42BFB2B23304E
:1007F800182C182C881B012C022C162C1130F400F4
:100808003A30F300F30B062CF40B062C00000C2CEA
:1008180083120313881F112C122C0C2C132C443018
:10082800182C182C6E30182C080004308A00040884
:10083800840A820700344134633463346534733482
:100848006F3420346234723469346E346434613401
:1008580064346F342C3400344234693465346E3473
:10086800763465346E34693464346F3420344134FA
:100878007434743465342E34003449346E3474342A
:1008880072346F34643475347A34633461342034A8
:100898006C346C34613476346534003443346F34EA
:1008A8006E34743472346134733465346E34613444
:1008B80020346D3461346C34613400345034723413
:1008C8006534733469346F346E34653420342334BA
:1008D8002034703461347234613400344134623409
:1008E8007234693465346E3464346F34203470344F
:1008F80075346534723474346134003449346E3478
:1009080067347234653473346534203463346C343A
:100918006134763465343A340034463461346D34A5
:1009280069346C346934613420345534563447346E
:1009380000344234693465346E34763465346E3448
:10094800693464346F34003469346E347434653413
:100958006E34743465346C346F34003469346E34F6
:100968006934633469346134723400348312031394
:100978008C1DBF2CC02C1D2D1412141BC42CC52C6F
:10098800CA2C941FC82CC92CD22CCA2C1308F000CE
:100998007008F800141394131416D22C831603133A
:1009A800941AD72CD82CF72C1419DB2CDC2CF72C08
:1009B800831203131308F0007008F8008C11141642
:1009C800E52C83160313141CEA2CEB2CE52CEC2CD9
:1009D800831203131308F0007008F7000A30F000C0
:1009E800F00BF42C1A2D941AFA2CFB2C1A2D141D2A
:1009F800FE2CFF2C1A2D831203131308F000700825
:100A0800F800831603131410831203133908930094
:100A180014160A30F000F00B0F2D122D8316031355
:100A28001418172D182D122D1A2D1A2D8312031391
:100A38008C110C1F202D212D302D0C131E08F000B9
:100A48007008F9009B30790203182B2D2C2D2E2DC0
:100A580009152F2D09119F140B1D332D342D4A2DE7
:100A68000B113D308100851C3A2D3B2D402D0F3058
:100A78009500B901B90A4A2D051D432D442D4A2D6B
:100A880006309500B9014A2D4A2D4A2D72088A0070
:100A9800710E8300FE0E7E0E090083120313A00060
:100AA800622D1F139F138B2D1F179F138B2D1F1341
:100AB8009F178B2D1F179F178B2D8B2D2008F50047
:100AC800F6017608003A03196A2D5E2D7508003A7A
:100AD8000319552D013A0319582D033A03195B2DB3
:100AE8005E2D8B2D1F119F111F129F12A82D1F15F0
:100AF8009F111F129F12A82D1F119F151F129F12C1
:100B0800A82D1F119F111F129F16A82DA82D73081D
:100B1800F500F6017608003A0319932D852D75081E
:100B2800003A0319762D013A03197B2D033A03196C
:100B3800802D852DA82D831603139F13B52D83169D
:100B480003139F17B52DB52D7408F500F601760827
:100B5800003A0319B02DA32D7508003A03199F2DEB
:100B6800A32D831203131F140C13831603130C17DE
:100B78000B178B17831203139F140800F500FB2D26
:100B8800831603130F128F120F131D2E83160313D0
:100B98000F168F120F131D2E831603130F128F16A5
:100BA8000F131D2E831603130F168F160F131D2EEA
:100BB800831603130F128F120F171D2E831603139C
:100BC8000F168F120F171D2E831603130F128F1671
:100BD8000F171D2E831603130F168F160F171D2EB2
:100BE800831603130F128F160F171D2E1D2E75084F
:100BF800F300F4017408003A0319032EF42D730866
:100C0800003A0319C42D013A0319CA2D033A0319EE
:100C1800D02D013A0319D62D073A0319DC2D013AD4
:100C28000319E22D033A0319E82D013A0319EE2DB1
:100C3800F42D0F14080083120313A2000430740665
:100C48007504031D282E292E5B2E22080F39F60065
:100C58007608A0002208F039F6007608A1000914E9
:100C68002108F60004300310F60CFF3E031D372E52
:100C780076080A128A11EB260A128A1183120313C4
:100C88008914462E472E000083120313891020086A
:100C98000A128A11EB260A128A1183120313891485
:100CA800552E562E0000831203138910702E08301B
:100CB80074067504031D612E622E702E0914220815
:100CC800860089142930F600F60B682E000083127E
:100CD80003138910702E702E0800831203138601E7
:100CE8000430F6003D30F500F50B782EF60B782E23
:100CF8007D2E30300A128A118E270A128A11D030BE
:100D0800F500F50B852E30300A128A118E270A124B
:100D18008A110630F500F50B8F2E000030300A12CC
:100D28008A118E270A128A110630F500F50B9A2EC1
:100D3800000038300A128A118E270A128A111430DC
:100D48000A128A118E270A128A1106300A128A118B
:100D58008E270A128A110C300A128A118E270A125B
:100D68008A1102300A128A118E270A128A11080083
:100D780083120313A700A501A601DC2E2408F500A1
:100D88002308F4002508270784000A128A11192469
:100D98000A128A110A128A111F260A128A110130B0
:100DA80083120313A5070318A60A0030A607DC2E32
:100DB8002508270784000A128A1119240A128A11A1
:100DC800003A031DE82EE92EC22EEA2E0800F30091
:100DD800731CEF2EF02EF42E831203130616F72E33
:100DE800831203130612F31CFA2EFB2EFD2E861611
:100DF800FE2E8612731D012F022F042F0617052FB2
:100E08000613F31D082F092F0B2F86170D2F861396
:100E18000D2F0800F6007603031D132F142F1C2F27
:100E280075087F3E0A128A118E270A128A112B2F03
:100E380002307606031D212F222F2B2F7508BF3E67
:100E48000A128A118E270A128A112B2F2B2F0800BB
:100E58008316031307159B3092008312031397130D
:100E680017131710971017159715063095001716B2
:100E780097168C101214921412158C1083160313E3
:100E880007110800F3007308831603139300363024
:100E980083120313940080308316031394000130E7
:100EA8009100871507168B170B17831203138C11E4
:100EB800831603138C1508006E30F5007508F600CC
:100EC8006E2F0A128A1184220A128A11F5007508F7
:100ED800F6006E2F6E3076060319732F742F652F68
:100EE800752F7608772F08008316031386010F30B5
:100EF8008500880187018901831603178801890104
:100F0800081483120313850186018801870189016A
:100F18008D2F0800F400831203130910740886004B
:100F28008914A630F300F30B972F000083120313E4
:100F38008910080085308316031381003E30831220
:100F4800031381008B178B160B11AA2F0800003092
:100F58000A128A118E270A128A1101300A128A117E
:100F68008E270A128A110800831203138801F030B1
:100F780083160313880001080800313437343334EA
:040F88003034383495
:04400E00F4E3FFFFD9
:00000001FF
