:020000040000FA
:060000000A128A110C280F
:10000800FE00030EF1000A08F2000A128A11BE2C43
:100018000A128A110F280A128A11C3270A128A1192
:10002800BF000A128A11C4270A128A11C0000A12D4
:100038008A11C5270A128A11C1000A128A11C62715
:100048000A128A11C2000A128A11C7270A128A11D3
:10005800C300B201B301B401B501B601B701B801DB
:10006800B901BA01BB01BC01BD01BE01F701F8012C
:10007800F901FA0183010A128A1142280A128A1127
:100088007A270A128A1103300A128A11C4250A1221
:100098008A11F301F40102300A128A1153250A1257
:1000A8008A110A128A112E270A128A110A128A1133
:1000B80073260A128A110A128A11BA270A128A1199
:1000C8000A128A11A0270A128A1170300A128A119C
:1000D80048270A128A110A128A11AD270A128A11B0
:1000E800F501F50A01300A128A1110270A128A113D
:1000F800083083120313A3000030A40012300A1240
:100108008A11BE260A128A11F501F50A02300A126E
:100118008A1110270A128A11083083120313A300C8
:100128000030A40023300A128A11BE260A128A114E
:10013800023083120313AA00E730A900FF30A80099
:10014800A80BA428A90BA428AA0BA428AB280A1238
:100158008A11AD270A128A116E3083120313A80080
:100168002808B100B828B828F501F50A01300A12A4
:100178008A1110270A128A11083083120313A30068
:100188000030A40055300A128A11BE260A128A11BC
:10019800F501F50A02300A128A1110270A128A118B
:1001A800083083120313A3000030A40099300A1208
:1001B8008A11BE260A128A110A128A1162270A12A5
:1001C8008A1183120313A8002808B10023303106CE
:1001D800031DEF28F028E02883120313BE01BE0A8E
:1001E800BD010A128A11AD270A128A11F501F50A12
:1001F80001300A128A1110270A128A110830831254
:100208000313A3000030A40075300A128A11BE2619
:100218000A128A110F290A128A1162270A128A11F0
:1002280083120313A8002808B1003D08013EA80066
:100238002808F50002300A128A1110270A128A11BA
:100248000830F4000030F5008312031331080A1255
:100258008A1121260A128A11013083120313A80079
:100268002808BD072A303106031D3B293C293E29B1
:10027800F028F0283108A8003D08FF3E323E8400EF
:1002880028088313800005303D06031D4C294D299D
:10029800E029A33083120313A9005430A800A80B47
:1002A8005329A90B5329000083120313AF01B0018E
:1002B8003008803AFF0080307F02031D6529053031
:1002C8002F02031C682969296B29EC29EC29831260
:1002D80003132F083F3E840083130008A800A901D8
:1002E8002808AB002908AC002F08323E840000081B
:1002F800A800A9012808AD002908AE002E082C0680
:10030800031D88292D082B0603198B298C29C92937
:100318000A128A11AD270A128A11F501F50A01306D
:100328000A128A1110270A128A110830831203133D
:10033800A3000030A40045300A128A11BE260A1212
:100348008A11F501F50A02300A128A1110270A12D9
:100358008A11083083120313A3000030A4008F30E1
:100368000A128A11BE260A128A1102308312031356
:10037800AA00E730A900FF30A800A80BC129A90BE3
:10038800C129AA0BC129C829F028013083120313F7
:10039800AF070318B00A0030B0073008803AFF00F2
:1003A80080307F02031DDA2905302F02031CDD2966
:1003B800DE296B29EC29EC29831203133E03031D64
:1003C800E629E729EC290F290F29EC29E028EC294F
:1003D8000A128A11AD270A128A11F501F50A0130AD
:1003E8000A128A1110270A128A110830831203137D
:1003F800A3000030A40001300A128A11BE260A1296
:100408008A11F501F50A02300A128A1110270A1218
:100418008A11083083120313A3000030A40034307B
:100428000A128A11BE260A128A112C2A0A128A1165
:1004380083220A128A1183120313A8002808B10024
:100448002A303106031D292A2A2A2C2AF028F028C6
:1004580083120313091D312A322A1A2A332A0A124F
:100468008A11AD270A128A11F501F50A01300A121C
:100478008A1110270A128A11083083120313A30065
:100488000030A40065300A128A11BE260A128A11A9
:10049800F501F50A02300A128A1110270A128A1188
:1004A800083083120313A3000030A40084300A121A
:1004B8008A11BE260A128A110F308312031395007F
:1004C800B901B90A043083120313AA002C30A90019
:1004D800AB30A800A80B6E2AA90B6E2AAA0B6E2AAD
:1004E8000A128A11AD270A128A11063083120313E1
:1004F8009500B901B828B8280A128A110C28831265
:1005080003130810881408158815081A8C2A8D2AD0
:10051800A12A1130F4003A30F300F30B912AF40BBE
:10052800912A0000972A83120313081E9C2A9D2AE9
:10053800972A9E2A3130172C172C881AA42AA52A04
:10054800B92A1130F4003A30F300F30BA92AF40B5E
:10055800A92A0000AF2A83120313881EB42AB52AD9
:10056800AF2AB62A3230172C172C081BBC2ABD2AF2
:10057800D12A1130F4003A30F300F30BC12AF40BFE
:10058800C12A0000C72A83120313081FCC2ACD2AC8
:10059800C72ACE2A3330172C172C881BD42AD52AE1
:1005A800E92A1130F4003A30F300F30BD92AF40B9E
:1005B800D92A0000DF2A83120313881FE42AE52AB8
:1005C800DF2AE62A4130172C172C08148810081542
:1005D8008815081AF02AF12A052B1130F4003A3050
:1005E800F300F30BF52AF40BF52A0000FB2A83121B
:1005F8000313081E002B012BFB2A022B3430172C67
:10060800172C881A082B092B1D2B1130F4003A30AF
:10061800F300F30B0D2BF40B0D2B0000132B83129F
:100628000313881E182B192B132B1A2B3530172C54
:10063800172C081B202B212B352B1130F4003A30B6
:10064800F300F30B252BF40B252B00002B2B831227
:100658000313081F302B312B2B2B322B3630172C42
:10066800172C881B382B392B4D2B1130F4003A30BE
:10067800F300F30B3D2BF40B3D2B0000432B8312AF
:100688000313881F482B492B432B4A2B4230172C26
:10069800172C0814881408118815081A542B552B80
:1006A800692B1130F4003A30F300F30B592BF40B9B
:1006B800592B00005F2B83120313081E642B652B34
:1006C8005F2B662B3730172C172C881A6C2B6D2B49
:1006D800812B1130F4003A30F300F30B712BF40B3B
:1006E800712B0000772B83120313881E7C2B7D2B24
:1006F800772B7E2B3830172C172C081B842B852B37
:10070800992B1130F4003A30F300F30B892BF40BDA
:10071800892B00008F2B83120313081F942B952B12
:100728008F2B962B3930172C172C881B9C2B9D2B25
:10073800B12B1130F4003A30F300F30BA12BF40B7A
:10074800A12B0000A72B83120313881FAC2BAD2B02
:10075800A72BAE2B4330172C172C08148814081518
:100768008811081AB82BB92BCD2B1130F4003A3068
:10077800F300F30BBD2BF40BBD2B0000C32B83122E
:100788000313081EC82BC92BC32BCA2B2A30172CBE
:10079800172C881AD02BD12BE52B1130F4003A30C6
:1007A800F300F30BD52BF40BD52B0000DB2B8312B6
:1007B8000313881EE02BE12BDB2BE22B3030172CA8
:1007C800172C081BE82BE92BFD2B1130F4003A30CD
:1007D800F300F30BED2BF40BED2B0000F32B83123E
:1007E8000313081FF82BF92BF32BFA2B2330172CA4
:1007F800172C881B002C012C152C1130F4003A30D2
:10080800F300F30B052CF40B052C00000B2C8312C2
:100818000313881F102C112C0B2C122C4430172C6E
:10082800172C6E30172C080004308A000408840A3C
:1008380082070034413463346334653473346F346D
:1008480020346234723469346E346434613464340C
:100858006F342C3400344234693465346E34763461
:1008680065346E34693464346F34203441347434FC
:10087800743465342E340034463461346D3469344C
:100888006C34693461342034533461346E346134E7
:100898006234723469346134003449346E347434E7
:1008A80072346F34643475347A3463346134203488
:1008B8006C346C34613476346534003443346F34CA
:1008C8006E34743472346134733465346E34613424
:1008D80020346D3461346C346134003450347234F3
:1008E8006534733469346F346E346534203423349A
:1008F80020347034613472346134003441346234E9
:100908007234693465346E3464346F34203470342E
:1009180075346534723474346134003449346E3457
:1009280067347234653473346534203463346C341A
:100938006134763465343A34003442346934653489
:100948006E34763465346E34693464346F3400340C
:1009580069346E34743465346E34743465346C348C
:100968006F34003469346E34693463346934613403
:1009780072340034831203138C1DC32CC42C1F2D16
:100988001412141BC82CC92CCE2C941FCC2CCD2C83
:10099800D62CCE2C1308F0007008F800141394130A
:1009A8001416D62C83160313941ADB2CDC2CF92C82
:1009B8001419DF2CE02CF92C831203131308F00010
:1009C8007008F8008C111416E92C83160313141CF4
:1009D800EE2CEF2CE92CF02C83120313130888005B
:1009E8000A30F000F00BF62C1C2D941AFC2CFD2C70
:1009F8001C2D141D002D012D1C2D8312031313080B
:100A0800F0007008F8008316031314108312031300
:100A18003908930014160A30F000F00B112D142D2C
:100A2800831603131418192D1A2D142D1C2D1C2D83
:100A3800831203138C110C1F222D232D322D0C131E
:100A48001E08F0007008F9009B30790203182D2D5C
:100A58002E2D302D0915312D09119F140B1D352D03
:100A6800362D4C2D0B11C8308100851C3C2D3D2D99
:100A7800422D0F309500B901B90A4C2D051D452DA1
:100A8800462D4C2D06309500B9014C2D4C2D4C2D82
:100A980072088A00710E8300FE0E7E0E0900831212
:100AA8000313A000642D1F139F138D2D1F179F1371
:100AB8008D2D1F139F178D2D1F179F178D2D8D2D72
:100AC8002008F500F6017608003A03196C2D602D10
:100AD8007508003A0319572D013A03195A2D033A9C
:100AE80003195D2D602D8D2D1F119F111F129F124F
:100AF800AA2D1F159F111F129F12AA2D1F119F1596
:100B08001F129F12AA2D1F119F111F129F16AA2D87
:100B1800AA2D7308F500F6017608003A0319952DF9
:100B2800872D7508003A0319782D013A03197D2D90
:100B3800033A0319822D872DAA2D831603139F13B9
:100B4800B72D831603139F17B72DB72D7408F5001B
:100B5800F6017608003A0319B22DA52D7508003A5A
:100B68000319A12DA52D831203131F140C1383162B
:100B780003130C170B178B17831203139F1408000A
:100B8800F500FD2D831603130F128F120F131F2E5E
:100B9800831603130F168F120F131F2E83160313BA
:100BA8000F128F160F131F2E831603130F168F168F
:100BB8000F131F2E831603130F128F120F171F2EDA
:100BC800831603130F168F120F171F2E8316031386
:100BD8000F128F160F171F2E831603130F168F165B
:100BE8000F171F2E831603130F128F160F171F2EA2
:100BF8001F2E7508F300F4017408003A0319052E36
:100C0800F62D7308003A0319C62D013A0319CC2DA5
:100C1800033A0319D22D013A0319D82D073A0319BB
:100C2800DE2D013A0319E42D033A0319EA2D013A9E
:100C38000319F02DF62D0F14080083120313A200D8
:100C4800043074067504031D2A2E2B2E5D2E2208EF
:100C58000F39F6007608A0002208F039F600760869
:100C6800A10009142108F60004300310F60CFF3E19
:100C7800031D392E76080A128A11ED260A128A11E6
:100C8800831203138914482E492E0000831203137C
:100C9800891020080A128A11ED260A128A11831275
:100CA80003138914572E582E00008312031389103A
:100CB800722E083074067504031D632E642E722E7E
:100CC80009142208860089142930F600F60B6A2ECA
:100CD8000000831203138910722E722E08008312EB
:100CE800031386010430F6003D30F500F50B7A2E2B
:100CF800F60B7A2E7F2E30300A128A1190270A12AC
:100D08008A11D030F500F50B872E30300A128A117F
:100D180090270A128A110630F500F50B912E000073
:100D280030300A128A1190270A128A110630F5000B
:100D3800F50B9C2E000038300A128A1190270A12EF
:100D48008A1114300A128A1190270A128A11063061
:100D58000A128A1190270A128A110C300A128A1173
:100D680090270A128A1102300A128A1190270A1251
:100D78008A11080083120313A700A501A601DE2E1D
:100D88002408F5002308F4002508270784000A1220
:100D98008A1118240A128A110A128A1121260A12A3
:100DA8008A11013083120313A5070318A60A00301D
:100DB800A607DE2E2508270784000A128A111824A0
:100DC8000A128A11003A031DEA2EEB2EC42EEC2ECD
:100DD8000800F300731CF12EF22EF62E8312031373
:100DE8000616F92E831203130612F31CFC2EFD2E91
:100DF800FF2E8616002F8612731D032F042F062F31
:100E08000617072F0613F31D0A2F0B2F0D2F861712
:100E18000F2F86130F2F0800F6007603031D152FDA
:100E2800162F1E2F75087F3E0A128A1190270A1264
:100E38008A112D2F02307606031D232F242F2D2FE4
:100E48007508BF3E0A128A1190270A128A112D2F9F
:100E58002D2F08008316031307159B309200831269
:100E680003139713171317109710171597150630B4
:100E78009500171697168C101214921412158C10D0
:100E88008316031307110800F3007308831603136E
:100E980093003630831203139400803083160313B3
:100EA800940001309100871507168B170B178312D2
:100EB80003138C11831603138C1508006E30F5008C
:100EC8007508F600702F0A128A1183220A128A11F5
:100ED800F5007508F600702F6E3076060319752F29
:100EE800762F672F772F7608792F0800831603133C
:100EF80086010F3085008801870189018316031751
:100F08008801890108148312031385018601880169
:100F1800870189018F2F0800F40083120313091039
:100F2800740886008914A630F300F30B992F00008B
:100F38008312031389100800853083160313810078
:100F4800C8308312031381008B178B160B11AC2F3B
:100F5800080000300A128A1190270A128A110130FB
:100F68000A128A1190270A128A11080083120313A1
:100F78008801F03083160313880001080800313413
:080F88003734333430343834BF
:04400E00F4E0FFFFDC
:00000001FF
