:020000040000FA
:060000000A128A110C280F
:10000800FE00030EF0000A08F1000A128A111E2BE6
:100018000A128A110F280A128A1125230A128A1134
:10002800BB000A128A1126230A128A11BC000A127E
:100038008A1127230A128A11BD000A128A1128235D
:100048000A128A11FB00BE01BF0183010A128A113C
:100058001A29831203132608AA002708AB002808C8
:10006800AC002908AD0006300310AA0DAB0DAC0D8D
:10007800AD0DFF3E031D38282D08F5002C08F400AF
:100088002B08F3002A08F2000030AE001230AF004F
:100098007A30B0000030B1002608B2002708B3005B
:1000A8002808B4002908B50006300310B20DB30DB6
:1000B800B40DB50DFF3E031D5928B209B309B409A3
:1000C800B509B20A0319B30A0319B40A0319B50A20
:1000D8003208AE0733080318330F73287428AF07A4
:1000E80034080318340F79287A28B007350803181C
:1000F800350AB1073108F9003008F8002F08F70071
:100108002E08F6000A128A11F5210A128A117308BC
:1001180083120313B7007208B600013037020030AB
:1001280003193602031C99289A2800292608AA00D0
:100138002708AB002808AC002908AD0004300310DC
:10014800AA0DAB0DAC0DAD0DFF3E031DA3282D0868
:10015800F5002C08F4002B08F3002A08F200003000
:10016800AE001230AF007A30B0000030B10026087F
:10017800B2002708B3002808B4002908B5000430E5
:100188000310B20DB30DB40DB50DFF3E031DC42809
:10019800B209B309B409B509B20A0319B30A0319B4
:1001A800B40A0319B50A3208AE0733080318330F27
:1001B800DE28DF28AF0734080318340FE428E528C1
:1001C800B00735080318350AB1073108F9003008B7
:1001D800F8002F08F7002E08F6000A128A11F521F8
:1001E8000A128A11730883120313B7007208B60043
:1001F80083160313181500290130831237020030C3
:1002080003193602031809290A29192936088316F9
:1002180003139900181398161812831203139817CA
:100228001813181698111929192908000A128A1181
:10023800F8220A128A1107300A128A119B220A121E
:100248008A11003083120313A9000030A80025305A
:10025800A7008030A6000A128A112D200A128A11DE
:100268003529FF300A128A1111230A128A118312C2
:1002780003133F080A128A1111230A128A11033044
:1002880083120313B9009730B800B80B4929B90B8A
:100298004929FE300A128A1111230A128A1183127F
:1002A80003133E080A128A1111230A128A11033015
:1002B80083120313B9009730B800B80B6129B90B42
:1002C8006129FD300A128A1111230A128A11831238
:1002D80003133D080A128A1111230A128A110330E6
:1002E80083120313B9009730B800B80B7929B90BFA
:1002F8007929FC300A128A1111230A128A118312F1
:1003080003133C080A128A1111230A128A110330B6
:1003180083120313B9009730B800B80B9129B90BB1
:100328009129FB300A128A1111230A128A118312A9
:1003380003133B080A128A1111230A128A11063084
:1003480083120313BA001330B900AD30B800B80BEC
:10035800AB29B90BAB29BA0BAB29013083120313B4
:10036800B8003808BF070130BE020F303D06031D34
:10037800BE29BF29C429F030B8003808BD00D029EB
:10038800F0303D06031DC929CA29D0290F30B8000D
:100398003808BD00D029D0293C03031DD429D5290C
:1003A800D729BC01E0293C08031DDB29DC29E02909
:1003B800BC01BC0AE029E0293B03031DE429E52927
:1003C800E729BB0135293B08031DEB29EC29352911
:1003D800BB01BB0A35293529352935290A128A1165
:1003E8000C2883120313A101F51FFB29FC29092AF4
:1003F800F209F309F409F509F20A0319F30A0319D2
:10040800F40A0319F50AA101A10AF91F0C2A0D2AF9
:100418001D2AF609F709F809F909F60A0319F70A6E
:100428000319F80A0319F90A0130FA007A08A10633
:100438001D2A0030A5000030A4000030A3000030C1
:10044800A200750874047304720403192C2A2D2A57
:10045800802AA001A00A3E2A0130FA000310F20DFA
:10046800F30DF40DF50DFA0B322A0130FA007A0873
:10047800A0073E2AF51F412A422A302A442A442A44
:100488000130FA000310A20DA30DA40DA50DFA0B5F
:10049800462A75087902031D5B2A74087802031D31
:1004A8005B2A73087702031D5B2A72087602031C15
:1004B8005E2A5F2A6F2A7208F6027308031C730FFC
:1004C800F7027408031C740FF8027508031C750FF3
:1004D800F90222146F2A01300310F50CF40CF30C06
:1004E800F20CFF3E031D702A0130A002031D7D2A75
:1004F8007E2A442A802A802A21080319842A852AE8
:10050800912AA209A309A409A509A20A0319A30A01
:100518000319A40A0319A50A912A2508F500240835
:10052800F4002308F3002208F2009A2A0800F400D5
:10053800D42A831603130F128F120F13F62A831669
:1005480003130F168F120F13F62A831603130F12B5
:100558008F160F13F62A831603130F168F160F1311
:10056800F62A831603130F128F120F17F62A831613
:1005780003130F168F120F17F62A831603130F1281
:100588008F160F17F62A831603130F168F160F17D9
:10059800F62A831603130F128F160F17F62AF62A58
:1005A8007408F200F3017308003A0319DC2ACD2A13
:1005B8007208003A03199D2A013A0319A32A033A3B
:1005C8000319A92A013A0319AF2A073A0319B52AC8
:1005D800013A0319BB2A033A0319C12A013A03193C
:1005E800C72ACD2A0F140800831603138501860134
:1005F800880187018901871707178712071687154A
:100608008316031788018901831203138501860164
:10061800880187018901102B0800F20072088312F3
:1006280003139900172B0C1A1A2B1B2B1D2B172B96
:10063800172B080071088A00700E8300FE0E7E0ECC
:0A0648000900013401340F34FF34BF
:04400E00F4E3FFFFD9
:00000001FF
