:020000040000FA
:060000000A128A110C280F
:10000800FE00030EF0000A08F1000A128A11F82A0D
:100018000A128A110F280A128A11FF220A128A115B
:10002800BD000A128A1100230A128A11BE000A12A0
:100038008A1101230A128A11BF000A128A110223A7
:100048000A128A11FB00C001C101F901FA018301FA
:100058000A128A111C29831203132808AC002908E4
:10006800AD002A08AE002B08AF0006300310AC0D17
:10007800AD0DAE0DAF0DFF3E031D3A282F08A300AE
:100088002E08A2002D08A1002C08A0000030B00006
:100098001230B1007A30B2000030B3002808B40042
:1000A8002908B5002A08B6002B08B7000630031047
:1000B800B40DB50DB60DB70DFF3E031D5B28B40991
:1000C800B509B609B709B40A0319B50A0319B60A76
:1000D8000319B70A3408B00735080318350F75280F
:1000E8007628B10736080318360F7B287C28B20714
:1000F80037080318370AB3073308A7003208A600E1
:100108003108A5003008A4000A128A11CF210A126A
:100118008A11831203132108B9002008B80001309E
:100128003902003003193802031C9B289C28022935
:100138002808AC002908AD002A08AE002B08AF003B
:1001480004300310AC0DAD0DAE0DAF0DFF3E031D19
:10015800A5282F08A3002E08A2002D08A1002C080E
:10016800A0000030B0001230B1007A30B200003088
:10017800B3002808B4002908B5002A08B6002B08DF
:10018800B70004300310B40DB50DB60DB70DFF3E22
:10019800031DC628B409B509B609B709B40A031975
:1001A800B50A0319B60A0319B70A3408B00735089F
:1001B8000318350FE028E128B10736080318360F71
:1001C800E628E728B20737080318370AB3073308C1
:1001D800A7003208A6003108A5003008A4000A12BA
:1001E8008A11CF210A128A11831203132108B90038
:1001F8002008B8008316031318150229013083124A
:10020800390200300319380203180B290C291B295D
:1002180038088316031399001813981618128312B6
:10022800031398171813181698111B291B2908006F
:100238000A128A11D2220A128A1107300A128A1166
:1002480075220A128A11003083120313AB000030A2
:10025800AA002530A9008030A8000A128A112F2090
:100268000A128A113729FF300A128A11EB220A1260
:100278008A118312031341080A128A11EB220A1207
:100288008A11FE300A128A11EB220A128A1183128D
:10029800031340080A128A11EB220A128A11FD3050
:1002A8000A128A11EB220A128A11831203133F08D9
:1002B8000A128A11EB220A128A11FC300A128A11D8
:1002C800EB220A128A11831203133E080A128A11BA
:1002D800EB220A128A11FB300A128A11EB220A1247
:1002E8008A11831203133D080A128A11EB220A129B
:1002F8008A11063083120313BC001330BB00AD30E3
:10030800BA00BA0B8529BB0B8529BC0B852901309E
:1003180083120313BA003A08C1070130C0020F3034
:100328003F06031D982999299E29F030BA003A08FA
:10033800BF00AA29F0303F06031DA329A429AA2932
:100348000F30BA003A08BF00AA29AA293E03031DA4
:10035800AE29AF29B129BE01BA293E08031DB52926
:10036800B629BA29BE01BE0ABA29BA293D03031D16
:10037800BE29BF29C129BD0137293D08031DC5294B
:10038800C6293729BD01BD0A372937293729372911
:100398000A128A110C28F40183120313A31FD5290A
:1003A800D629E329A009A109A209A309A00A0319CA
:1003B800A10A0319A20A0319A30AF401F40AA71F40
:1003C800E629E729F729A409A509A609A709A40A7E
:1003D8000319A50A0319A60A0319A70A0130F2008E
:1003E8007208F406F7290030F8000030F7000030F2
:1003F800F6000030F5002308220421042004031924
:10040800062A072A5A2AF301F30A182A0130F200A9
:100418000310A00DA10DA20DA30DF20B0C2A0130A3
:10042800F2007208F307182AA31F1B2A1C2A0A2A9B
:100438001E2A1E2A0130F2000310F50DF60DF70DE5
:10044800F80DF20B202A23082702031D352A22085B
:100458002602031D352A21082502031D352A2008F6
:100468002402031C382A392A492A2008A402210810
:10047800031C210FA5022208031C220FA602230831
:10048800031C230FA7027514492A01300310A30C7B
:10049800A20CA10CA00CFF3E031D4A2A0130F30256
:1004A800031D572A582A1E2A5A2A5A2A7408031939
:1004B8005E2A5F2A6B2AF509F609F709F809F50A91
:1004C8000319F60A0319F70A0319F80A6B2A7808B8
:1004D800A3007708A2007608A1007508A000742A76
:1004E8000800F400AE2A831603130F128F120F139D
:1004F800D02A831603130F168F120F13D02A8316D0
:1005080003130F128F160F13D02A831603130F1617
:100518008F160F13D02A831603130F128F120F177B
:10052800D02A831603130F168F120F17D02A83169B
:1005380003130F128F160F17D02A831603130F16E3
:100548008F160F17D02A831603130F128F160F1743
:10055800D02AD02A7408F200F3017308003A03196C
:10056800B62AA72A7208003A0319772A013A03190A
:100578007D2A033A0319832A013A0319892A073A7B
:1005880003198F2A013A0319952A033A03199B2A5A
:10059800013A0319A12AA72A0F1408008316031386
:1005A8008501860188018701890187170717871246
:1005B8000716871583160317880189018312031309
:1005C80085018601880187018901EA2A0800F2006D
:1005D8007208831203139900F12A0C1AF42AF52AD7
:1005E800F72AF12AF12A080071088A00700E8300A0
:0E05F800FE0E7E0E0900013401340F34FF3474
:04400E00D4E3FFFFF9
:00000001FF
