:020000040000FA
:100000000A128A11F22F00308A000408840A82073B
:1000100000342034533431343A3420342034203402
:10002000533432343A3420342034533433343A3471
:10003000203400344F344E34203400344F344634AE
:10004000463400342E340034323400343434003436
:0C005000363400344334003453340034A0
:1006C000F000700883120313930008006400800197
:1006D000840A0406031900340406672B6F2B831663
:1006E0000313141C742B752B6F2B762B08000A1226
:1006F0008A116E230A128A11831203131308802BA6
:100700000800F10083120313091071088600891490
:10071000A630F000F00B8A2B00008312031389101F
:100720000800F300831603138712731D982B992B6F
:100730009D2B720894008715A12B700872049400F9
:100740008711730871048312031394000800F300E7
:100750007303031DAC2BAD2BB52B72087F3E0A1221
:100760008A1181230A128A11C42B02307306031DD9
:10077000BA2BBB2BC42B7208BF3E0A128A118123ED
:100780000A128A11C42BC42B08007908FA007A08CF
:10079000F20002300A128A11A7230A128A11FB0101
:1007A000FC017708303EFB0078080318013E003E4C
:1007B000FC000830F1000030F2007B080A128A11B8
:1007C000EA240A128A1108008316031385018601A0
:1007D0008801870187170717871207168711890174
:1007E000831603178801890183120313850186018B
:1007F000880187018901F001F101F20120300A121C
:100800008A1191230A128A11052C0800F000701C2D
:100810000A2C0B2C0F2C831203130616122C831296
:1008200003130612F01C152C162C182C8616192CE6
:100830008612701D1C2C1D2C1F2C0617202C061335
:10084000F01D232C242C262C8617282C8613282CCC
:100850000800FB00F901FA01452C7808F20077083E
:10086000F10079087B0784000A128A1103200A121A
:100870008A110A128A11EA240A128A110130F90730
:100880000318FA0A0030FA07452C79087B07840020
:100890000A128A1103200A128A11003A031D512CF0
:1008A000522C2D2C532C0800831203138601043084
:1008B000F3003D30F200F20B5B2CF30B5B2C602C51
:1008C00030300A128A1181230A128A11D030F200C4
:1008D000F20B682C30300A128A1181230A128A1115
:1008E0000630F200F20B722C000030300A128A112E
:1008F00081230A128A110630F200F20B7D2C0000CF
:1009000038300A128A1181230A128A1114300A120D
:100910008A1181230A128A1106300A128A11812350
:100920000A128A110C300A128A1181230A128A11C2
:1009300002300A128A1181230A128A1108000A3031
:10094000F0000030F1007A08F3007908F2000A1292
:100950008A119B250A128A11710883120313A900B8
:100960007008A8000A30F0000030F1007A08F300A7
:100970007908F2000A128A11FE250A128A117108FA
:10098000FA007008F9000A30F0000030F1007A082F
:10099000F3007908F2000A128A119B250A128A11C3
:1009A000710883120313A7007008A6000A30F00034
:1009B0000030F1007A08F3007908F2000A128A1177
:1009C000FE250A128A11710883120313A50070080C
:1009D000A4000800F600043071067204031DF12C17
:1009E000F22C262D76080F39F3007308F4007608F0
:1009F000F039F3007308F500831203130914750826
:100A0000F30004300310F30CFF3E031D022D7308A6
:100A10000A128A1106240A128A11831203138914F6
:100A2000112D122D000083120313891074080A126D
:100A30008A1106240A128A11831203138914202DA5
:100A4000212D00008312031389103D2D08307106FB
:100A50007204031D2C2D2D2D3D2D8312031309141B
:100A60007608860089142930F300F30B352D000039
:100A70008312031389103D2D3D2D0800F200772DC0
:100A8000831603130F128F120F13992D831603135E
:100A90000F168F120F13992D831603130F128F1633
:100AA0000F13992D831603130F168F160F13992DFD
:100AB000831603130F128F120F17992D831603132A
:100AC0000F168F120F17992D831603130F128F16FF
:100AD0000F17992D831603130F168F160F17992DC5
:100AE000831603130F128F160F17992D992D720865
:100AF000F000F1017108003A03197F2D702D700884
:100B0000003A0319402D013A0319462D033A0319FF
:100B10004C2D013A0319522D073A0319582D013A69
:100B200003195E2D033A0319642D013A03196A2D46
:100B3000702D0F140800F601F31F9F2DA02DA82D76
:100B4000F209F309F20A0319F30AF601F60AA82DCD
:100B5000F11FAB2DAC2DB22DF009F109F00A0319EC
:100B6000F10AB22D700871040319B72DB82DED2DBF
:100B7000F501F50AC72D01300310F00DF10DFF3E10
:100B8000031DBC2D0130F4007408F507C72DF11FBB
:100B9000CA2DCB2DBB2DCD2DCD2D71087302031D7C
:100BA000D32D70087202031CD62DD72DDE2D7008B0
:100BB000F2027108031CF303F302DE2D013003106F
:100BC000F10CF00CFF3E031DDF2D0130F502031D7B
:100BD000EA2DEB2DCD2DED2DED2D76080319F12D00
:100BE000F22DF82DF209F309F20A0319F30AF82D90
:100BF0007308F1007208F000FD2D0800F601F11FE6
:100C0000022E032E0B2EF009F109F00A0319F10A46
:100C1000F601F60A0B2EF31F0E2E0F2E192EF209D7
:100C2000F309F20A0319F30A0130F4007408F60616
:100C3000192EF701F801700871040319202E212ED6
:100C40005E2EF501F50A302E01300310F00DF10D86
:100C5000FF3E031D252E0130F4007408F507302EE9
:100C6000F11F332E342E242E362E362E0130031053
:100C7000F70DF80DFF3E031D372E71087302031D9B
:100C8000432E70087202031C462E472E4F2E70080A
:100C9000F2027108031CF303F30277144F2E0130A4
:100CA0000310F10CF00CFF3E031D502E0130F50235
:100CB000031D5B2E5C2E362E5E2E5E2E76080319EB
:100CC000622E632E692EF709F809F70A0319F80A4C
:100CD000692E7808F1007708F0006E2E08000A12DD
:100CE0008A11E4230A128A1107300A128A113E255A
:100CF0000A128A110A128A1154240A128A11F20164
:100D0000F20A01300A128A11A7230A128A11083046
:100D1000F7000030F80001300A128A1129240A1263
:100D20008A11033083120313B6003608F200023032
:100D30000A128A11A7230A128A110830F70000301C
:100D4000F80024300A128A1129240A128A11073065
:100D500083120313B6003608F20002300A128A1119
:100D6000A7230A128A110830F7000030F8001A3061
:100D70000A128A1129240A128A11093083120313D4
:100D8000B6003608F20002300A128A11A7230A12AE
:100D90008A110830F1000030F200DF300A128A11A7
:100DA000EA240A128A110A3083120313B6003608A5
:100DB000F20002300A128A11A7230A128A1108309F
:100DC000F7000030F80022300A128A1129240A1292
:100DD0008A11EA2E83120313091101300A128A11B3
:100DE00060230A128A110A128A1177230A128A11C1
:100DF00083120313B6003608B3000D3083120313B9
:100E0000B700FB30B600B60B032FB70B032F023031
:100E10000A128A1160230A128A110A128A11772390
:100E20000A128A1183120313B6003608FD000D3032
:100E300083120313B700FB30B600B60B1D2FB70BA0
:100E40001D2F03300A128A1160230A128A110A1216
:100E50008A1177230A128A1183120313B600360807
:100E6000B2000D3083120313B700FB30B600B60B8F
:100E7000372FB70B372F8312031309157D08850011
:100E8000320888007D08B600B7013608F900370837
:100E9000FA000A128A119F240A128A11831203137C
:100EA0002908F8002808F7000230B6003608F900D3
:100EB0000A128A11C5230A128A1183120313270802
:100EC000F8002608F700F901F90A0A128A11C52369
:100ED0000A128A11053083120313B6003608F20095
:100EE00002300A128A11A7230A128A110830F70069
:100EF0000030F8001C300A128A1129240A128A11C3
:100F0000063083120313B6003608F20002300A12CC
:100F10008A11A7230A128A110830F7000030F8005E
:100F200020300A128A1129240A128A1108308312E9
:100F30000313B6003608F20002300A128A11A72302
:100F40000A128A110830F7000030F8001E300A1229
:100F50008A1129240A128A11831203133303031DF1
:100F6000B22FB32FCB2F0E30B6003608F20002306E
:100F70000A128A11A7230A128A110830F7000030DA
:100F8000F80012300A128A1129240A128A118312D7
:100F900003130714E32F0E30B6003608F2000230B8
:100FA0000A128A11A7230A128A110830F7000030AA
:100FB000F80016300A128A1129240A128A118312A3
:100FC00003130710E32F823083120313B700DD30C1
:100FD000B600B60BE92FB70BE92FEA2EEA2E0A125C
:100FE0008A110028FD0183132030840036300A1254
:100FF0008A1166230A128A1183010A128A116F2E3E
:04400E00D4E3FFFFF9
:00000001FF
