:020000040000FA
:060000000A128A110C280F
:10000800FE00030EF7000A08F8000A128A111629E2
:100018000A128A110F2883134B30FD000330FE00AB
:100028002A30FF00423084000A128A1106230A127D
:100038008A11CB01CC01CD01F001F101F201F301EC
:10004800F40183010A128A117D2A831203132E08F0
:10005800B2002F08B3003008B4003108B5000630EC
:100068000310B20DB30DB40DB50DFF3E031D3428BA
:100078003508A3003408A2003308A1003208A00004
:100088000030B6001230B7007A30B8000030B9003E
:100098002E08BA002F08BB003008BC003108BD008C
:1000A80006300310BA0DBB0DBC0DBD0DFF3E031D80
:1000B8005528BA09BB09BC09BD09BA0A0319BB0A04
:1000C8000319BC0A0319BD0A3A08B6073B08031806
:1000D8003B0F6F287028B7073C0803183C0F75289A
:1000E8007628B8073D0803183D0AB9073908A7005C
:1000F8003808A6003708A5003608A4000A128A1195
:10010800D7210A128A11831203132108BF0020087D
:10011800BE0001303F02003003193E02031C95283F
:100128009628FC282E08B2002F08B3003008B40027
:100138003108B50004300310B20DB30DB40DB50D80
:10014800FF3E031D9F283508A3003408A20033088A
:10015800A1003208A0000030B6001230B7007A3093
:10016800B8000030B9002E08BA002F08BB003008CC
:10017800BC003108BD0004300310BA0DBB0DBC0D26
:10018800BD0DFF3E031DC028BA09BB09BC09BD0946
:10019800BA0A0319BB0A0319BC0A0319BD0A3A08AB
:1001A800B6073B0803183B0FDA28DB28B7073C08DB
:1001B80003183C0FE028E128B8073D0803183D0A5A
:1001C800B9073908A7003808A6003708A500360877
:1001D800A4000A128A11D7210A128A118312031362
:1001E8002108BF002008BE00831603131815FC2839
:1001F800013083123F02003003193E02031805291B
:10020800062915293E088316031399001813981612
:100218001812831203139817181318169811152912
:1002280015290800831203138C1D1B291C2970290A
:100238000A128A1120230A128A11F6007608F4009D
:100248007403031D28292929302973080A128A11E1
:100258003C230A128A116C2902307406031D3529C1
:1002680036293D2972080A128A113C230A128A117A
:100278006C2903307406031D422943294C29831233
:1002880003134D080A128A113C230A128A116C2999
:1002980004307406031D512952295B298312031364
:1002A8004C080A128A113C230A128A116C2905305B
:1002B8007406031D602961296C2971080A128A11C4
:1002C8003C230A128A116C296C296C296C296C2927
:1002D800831203138C11D0298C1E73297429D029F9
:1002E8000A128A1115230A128A11F6007608F000FC
:1002F800700A031D802981298A290A128A11152367
:100308000A128A11F6007608F300D029FE3070062A
:10031800031D8F29902999290A128A1115230A1277
:100328008A11F6007608F200D029FD307006031D08
:100338009E299F29AA290A128A1115230A128A11AD
:10034800F600760883120313CD00D029FC3070061E
:10035800031DAF29B029BB290A128A1115230A12D5
:100368008A11F600760883120313CC00D029FB30DB
:100378007006031DC029C129D0290A128A11152324
:100388000A128A11F6007608F100D029D029D0295E
:10039800D029D029D029D02978088A00770E83005F
:1003A800FE0E7E0E090083120313A901A31FDD2987
:1003B800DE29EB29A009A109A209A309A00A0319AA
:1003C800A10A0319A20A0319A30AA901A90AA71FC6
:1003D800EE29EF29FF29A409A509A609A709A40A56
:1003E8000319A50A0319A60A0319A70A0130F90077
:1003F8007908A906FF290030AD000030AC000030B4
:10040800AB000030AA0023082204210420040319A9
:100418000E2A0F2A622AA801A80A202A0130F90008
:100428000310A00DA10DA20DA30DF90B142A013084
:10043800F9007908A807202AA31F232A242A122AA8
:10044800262A262A0130F9000310AA0DAB0DAC0D9F
:10045800AD0DF90B282A23082702031D3D2A22087F
:100468002602031D3D2A21082502031D3D2A2008D6
:100478002402031C402A412A512A2008A4022108E8
:10048800031C210FA5022208031C220FA602230821
:10049800031C230FA7022A14512A01300310A30CAE
:1004A800A20CA10CA00CFF3E031D522A0130A80289
:1004B800031D5F2A602A262A622A622A290803194C
:1004C800662A672A732AAA09AB09AC09AD09AA0AE0
:1004D8000319AB0A0319AC0A0319AD0A732A2D08CC
:1004E800A3002C08A2002B08A1002A08A0007C2A3F
:1004F80008000A128A11E7220A128A1183120313CA
:10050800A0011030C0004008A1004030C1004108DF
:10051800A20025300A128A11C9220A128A11003053
:1005280083120313B1000030B0002530AF008030D3
:10053800AE000A128A1129200A128A1183120313A3
:1005480085018601870189018801AA2A7308850027
:10055800720886004D0888004C03031DB42AB52A8A
:10056800B72A0914B92A0910B92A7103031DBD2A2B
:10057800BE2AC02A8914C22A8910C22A7108860094
:10058800AA2AAA2A0A128A110C28F9008316031328
:100598008712791DD02AD12AD92A83120313220857
:1005A8008316031394008715E12A83120313200886
:1005B8002204831603139400871179088312031306
:1005C8002104940008007130831603138F008316EA
:1005D800031788018901C0308B00831203138C1123
:1005E800831603138C158717071785018601880161
:1005F80089018B170B178C16012B08007E088A00BF
:100608007F0882000A128A1102230A128A118000C6
:10061800840A04087D0603190034FF0A0319FE0A38
:10062800062B162B831203138C1E1B2B1C2B162B2D
:100638001D2B1A081F2B08000A128A1133230A12CD
:100648008A11831203131308292B08003234283423
:100658001E3414340A3428341E3414340A34342B27
:1006680083160313141C392B3A2B342B3B2B08000D
:0C067800F50075088312031393000800BE
:04400E00D4E0FFFFFC
:00000001FF
